:1000000000000420190200000102000003020000A9
:1000100005020000070200000902000000000000C5
:100020000000000000000000000000000B020000C3
:100030000D020000000000000F020000110200008D
:100040004D1B000013020000130200001302000009
:100050001302000013020000A52500001302000097
:10006000130200001302000013020000130200003C
:10007000130200001302000013020000130200002C
:10008000130200009143000013020000130200005D
:10009000D14300001302000013020000130200000D
:1000A00013020000130200001302000013020000FC
:1000B0004D340000130200000000000000000000AA
:1000C00013020000653400007D34000013020000BC
:1000D00013020000130200001302000013020000CC
:1000E00013020000130200001302000000000000D1
:1000F00000000000130200000000000013020000D6
:1001000000000000000000000000000000000000EF
:1001100000000000000000000000000000000000DF
:1001200000000000000000000000000000000000CF
:1001300000000000000000000000000000000000BF
:1001400000000000000000000000000000000000AF
:10015000000000000000000000000000000000009F
:10016000000000000000000000000000000000008F
:10017000000000000000000000000000000000007F
:10018000000000000000000000000000000000006F
:10019000000000000000000000000000000000005F
:1001A000000000000000000000000000000000004F
:1001B000000000000000000000000000000000003F
:1001C000000000000000000000000000000000002F
:1001D000000000000000000000000000000000001F
:1001E000000000000000000000000000000000000F
:1001F00000000000000000000000000000000000FF
:10020000FEE7FEE7FEE7FEE7FEE7FEE7FEE7FEE7C6
:10021000FEE7FEE7704700BF1048804710484FF0E8
:100220000701884385460F4880470F48016841F41D
:1002300070010160BFF34F8FBFF36F8F00F01CB8E8
:100240000A480B490B4A884207D0521A05D0037856
:1002500001300B700131013AF9D1704715020000ED
:10026000000004208146000088ED00E0704B000093
:100270000000002000000020354936480A1A02D04C
:10028000072291438D46344934480A1A06D0072282
:10029000914381F30988022282F31488304831495E
:1002A000314A00F044F831483149324A00F03FF811
:1002B00031483249324A00F03AF832483249334A3A
:1002C00000F035F832483349334A00F030F833480B
:1002D0003349344A00F02BF833483449344A00F0AB
:1002E00026F834483449002200F02CF833483449C9
:1002F000002200F027F833483349091A082902DBA5
:10030000002202604160314A90471F481F498842DD
:1003100005D00268043003B4904703BCF7E700201F
:100320008646EC4600200021294A9047FEE7884295
:1003300007D0521A05D0037801300B700131013A11
:10034000F9D17047884202D002700130FAE7704755
:100350000000042000E0032000000420000004202E
:10036000105C07000000002014000020D4030000EF
:10037000D4030000704B0000105C07000000002058
:1003800000000020704B0000704B0000704B00001C
:10039000704B0000704B0000704B0000704B000071
:1003A000704B0000105C0700245C07001400002064
:1003B0001400002014000020F40A0020F40A002099
:1003C000F40A0020F40A0020F42A00204102000070
:0403D0006D040000B8
:1003D40000B583B003468DF807309DF807300E3B17
:1003E400032B32D801A252F823F000BF010400000D
:1003F40015040000290400003D0400000023B7EEAA
:10040400000A042242F2BA71124800F0BBFA1DE05D
:100414000023B7EE000A022244F6D2310E4800F05F
:10042400B1FA13E00023B7EE000A012248F60E01E8
:100434000A4800F0A7FA09E00023B7EE000A0122F7
:100444000749084800F09EFA00E000BF03B05DF8D9
:1004540004FB00BFCCDD0000880501005C510100F5
:10046400707E05006CD9010000B583B000230193B0
:10047400019B002B04D01A4A7421019803F05CFA02
:1004840001F00EF9002001F061F903F0A5FF154910
:10049400022001F03FF801F0FDF803238DF803304A
:1004A40000238DF802309DF802209DF80330114698
:1004B400184600F0D1F90023B7EE000A022249F2EF
:1004C400FA11094800F05EFA01E020BF00BF00F015
:1004D400C7FA0346002BF8D120BF00BFFCE700BFDA
:1004E400704B0000D5030000D04B000000B583B072
:1004F4000190019B1B682F2B04D90B494FF4F37017
:1005040004F085F8019B1B681F2B02D84FF0A04311
:1005140006E0019B1B6803F01F02019B1A60034B5A
:10052400184603B05DF804FBA44B00000003005020
:1005340000B585B00190084611461A4603468DF869
:1005440003300B468DF8023013468DF8013001ABB1
:100554001846FFF7CBFF03909DF803209DF8023067
:100564005B001A439DF801309B001A439DF8183034
:100574001B0242EA03019DF81C301B04019A194333
:10058400039B02F5E07243F8221000BF05B05DF84A
:1005940004FB00008AB00590049103928DED010ADA
:1005A4008DF80B309DF80B300793002308937DE002
:1005B400089A079BB2FBF3F3039A9A4216D9089A56
:1005C400079BB2FBF3F3049A134493F9003007EE4C
:1005D400903AB8EEE77ADDED016A9FED3B6AC6EE2C
:1005E400867A67EE277ACDED097A02E04FF00003B0
:1005F4000993DDED097ABFEE007AF4EEC77AF1EEE5
:1006040010FA21DDDDED097AB7EE007AF4EEC77A4F
:10061400F1EE10FA18D5DDED097AB7EE007A77EE2F
:10062400877A9FED2A7A27EE877AF0EE006AC7EE82
:10063400267A089B5B00059A1344FCEEE77A17EED2
:10064400902A92B21A802EE0DDED097AF5EE407A16
:10065400F1EE10FA07D1089B5B00059A13444FF49E
:1006640080721A801FE0DDED097ABFEE007AF4EEA5
:10067400C77AF1EE10FA06D8089B5B00059A13447A
:1006840000221A800FE0DDED097AB7EE007AF4EE6D
:10069400C77AF1EE10FA06DB089B5B00059A134457
:1006A4004FF400721A80089B01330893089BB3F53A
:1006B400007FFFF47DAF4FF40072079BB2FBF3F3AE
:1006C40018460AB0704700BF000000430000004411
:1006D40000B585B003468DF80730002302939DF8DA
:1006E4000730012B02D0022B28D07AE03E4B1B7836
:1006F400002B12D03D4B1A683D4B1B68D1183D4B63
:100704001A683D4B1B783D48D0ED007AB0EE670A7D
:100714003B48FFF73FFF02903AE00023039308E0D1
:10072400374A039B4FF4807122F81310039B013363
:100734000393039BB3F5007FF2D329E02A4B1B7884
:10074400002B12D0294B1A68294B1B68D118294B4E
:100754001A68294B1B782948D0ED007AB0EE670A55
:100764002848FFF717FF029011E0002303930AE0E3
:10077400234A039B03F500734FF4807122F813108E
:10078400039B01330393039BB3F5007FF0D300BFB6
:10079400174B1A68029B1344154A1360154B1A68C9
:1007A400029BD31A134A1360114B1A68164B1B6829
:1007B4009A4216D3154B1B68002B0CD0134B1B68A5
:1007C400013B124A1360104B1B680A4A1360084B22
:1007D40000221A6005E0074B00221A60024B002237
:1007E4001A7005B05DF804FB1500002040080020D5
:1007F400480800204C080020080000200C000020BD
:100804003800002038040020440800203C08002060
:1008140082B00023019314E00E4A019B03F5007398
:100824004FF4807122F813100A4A019B03F50073F8
:1008340032F81310074A019B22F81310019B01336D
:100844000193019BB3F5007FE6D300BF00BF02B064
:10085400704700BF3800002000B589B003460A463F
:100864008DF80F3013468DF80E30344B1B78002B67
:1008740001D000F06FF89DF80F3063F07F03DBB216
:100884008DF81030FF238DF81130FF238DF81230CE
:10089400FF238DF8133006238DF8143000238DF8D0
:1008A400153000238DF816304FF40073ADF818306E
:1008B40000238DF81A3000238DF81B3004AB204A36
:1008C4001946204802F048FB0790079B002B01D0F3
:1008D400079B2EE0FFF79CFF9DF80E30002B0AD0FB
:1008E4009DF80F00002301930123009300230122AC
:1008F4000121FFF71DFE144B144A1A60124B4FF4EA
:1009040000729A80104B00229A600F4B0022DA602A
:100914000D4B0F4A1A610C4B4FF400729A820A4B2A
:1009240000229A61084B0022DA61044B01221A70FA
:100934000023184609B05DF804FB00BF1400002032
:10094400D506000000000020180000203800002018
:100954003804002008B5084B1B78002B04D000F0A5
:1009640067F8064802F082FB054B00221A70024B1E
:1009740000221A7000BF08BD1400002000000020EF
:100984001500002000B589B0079006918DED040A8A
:10099400039313468DF81730184B1B7883F001032B
:1009A400DBB2002B01D0032324E0154A079B13601C
:1009B400144A069B1360144A9DF817301370134AA7
:1009C400049B1360124A039B1360124B00221A60AB
:1009D400114A039B1360114A069B1360104B0122BA
:1009E4001A700E23009301230E4A0F490F4802F098
:1009F400C9FB0023184609B05DF804FB140000206D
:100A04004008002044080020080000200C000020BA
:100A140038080020480800203C0800204C0800202A
:100A240015000020280000201800002000000020ED
:100A340008B5094B1B7883F00103DBB2002B01D00E
:100A4400032306E00021054802F014FCFFF7E0FE52
:100A54000023184608BD00BF140000200000002039
:100A6400064B1B78002B05D0054B1B78002B01D0BF
:100A7400012300E000231846704700BF1400002043
:100A84001500002000B583B00190019B1B682F2B3B
:100A940004D90B494FF4F37003F0B9FD019B1B68B3
:100AA4001F2B02D84FF0A04306E0019B1B6803F004
:100AB4001F02019B1A60034B184603B05DF804FB48
:100AC400DC5707000003005000B585B001900846CC
:100AD40011461A4603468DF803300B468DF8023052
:100AE40013468DF8013001AB1846FFF7CBFF039096
:100AF4009DF803209DF802305B001A439DF80130F5
:100B04009B001A439DF818301B0242EA03019DF82A
:100B14001C301B04019A1943039B02F5E07243F84D
:100B2400221000BF05B05DF804FB00B585B003904A
:100B34000023019300230093002301220121039841
:100B4400FFF7C2FF00BF05B05DF804FB00B585B038
:100B540003900B468DF80B309DF80B300022019268
:100B640000220092002200210398FFF7ADFF00BF8E
:100B740005B05DF804FB00B585B0019001AB1846E3
:100B8400FFF780FF0390019B012202FA03F3194649
:100B9400039800F069F800BF05B05DF804FB00B5E8
:100BA40085B0019001AB1846FFF76CFF0390019BE1
:100BB400012202FA03F31946039800F05FF800BF1C
:100BC40005B05DF804FB00B585B0019001AB184693
:100BD400FFF758FF0390039BD3F804350293029B5D
:100BE400DA43019B012101FA03F31A40039BC3F882
:100BF4000825019B01229A40029B1A40039BC3F8DB
:100C04000C2500BF05B05DF804FB00B583B001906E
:100C14000091009B002B03D10198FFF7C0FF02E075
:100C24000198FFF7A8FF00BF03B05DF804FB00B50F
:100C340085B0019001AB1846FFF724FF0390039899
:100C440000F00AF80246019B22FA03F303F00103C1
:100C5400184605B05DF804FB82B00190019BD3F8FF
:100C64000435184602B0704782B001900091019B90
:100C7400009AC3F8082500BF02B0704782B0019003
:100C84000091019B009AC3F80C2500BF02B0704785
:100C940000B585B00190019B032B03D911493A207B
:100CA40003F0B5FC104A019B13441B781846FFF768
:100CB400BEFF0346002B14BF012300238DF80F3021
:100CC4009DF80F30002B14BF01230023DBB283F007
:100CD4000103DBB203F00103DBB2184605B05DF893
:100CE40004FB00BF085807006058070000B583B034
:100CF4000190019B032B03D90749412003F087FC92
:100D0400064A019B13441B7800211846FFF77DFF18
:100D140000BF03B05DF804FB0858070060580700E3
:100D240000B583B00190019B032B03D907494720E9
:100D340003F06DFC064A019B13441B7801211846FD
:100D4400FFF763FF00BF03B05DF804FB085807001A
:100D54006058070000B583B00023019305E00198B3
:100D6400FFF7DEFF019B01330193019B032BF6D9AF
:100D740000BF00BF03B05DF804FB00B583B00023DF
:100D8400019305E00198FFF7B1FF019B0133019343
:100D9400019B032BF6D900BF00BF03B05DF804FB31
:100DA40000B583B00190019B032B03D907495F2051
:100DB40003F02DFC064A019B13441B781846FFF7E9
:100DC40002FF00BF03B05DF804FB00BF0858070032
:100DD4006058070000B583B00023019309E0094A75
:100DE400019B13441B781846FFF79FFE019B0133B8
:100DF4000193019B032BF2D9FFF7ACFF00BF03B0B3
:100E04005DF804FB6058070000B583B0002301932C
:100E14000AE0094A019B13441B7803211846FFF793
:100E240095FE019B01330193019B032BF1D900BF74
:100E340000BF03B05DF804FB6458070084B0019060
:100E44004FF0FF330293002303930DE00A4A039B00
:100E540013441B781A46019B934202D1039B0293CD
:100E640005E0039B01330393039B032BEED9029B01
:100E7400184604B0704700BF6458070000B583B03B
:100E84000190019B03F00103002B01D0FFF7A2FFA7
:100E9400019B03F00203002B01D0FFF7B5FF00BF55
:100EA40003B05DF804FB000000B587B003460A46B2
:100EB4008DF8073013468DF8063000238DF817306F
:100EC400002304939DF807301846FFF7B7FF0490FA
:100ED400049B032B61D89DF80630022B52D0022BC1
:100EE4005EDC002B31D0012B5AD13649049A1346CB
:100EF4005B0013440B441B788DF817303149049A76
:100F040013465B0013440B4401331B78002B0ED0B3
:100F14002D4B2E4A4FF40041184603F0C1FA0390BA
:100F2400039B002B03D1294A9DF8073013702549F0
:100F3400049A13465B0013440B4402331978244A81
:100F4400049B13440A461A702AE01F4B184603F008
:100F5400D9FA1F4A049B134419781A48049A134671
:100F64005B001344034402331B78994217D115499B
:100F7400049A13465B0013440B4402331B788DF828
:100F840017300CE00F49049A13465B0013440B44DA
:100F940001331B788DF8173002E000BF00E000BF7A
:100FA4009DF81730002B09D00A4B1B68002B05D085
:100FB400084B1B689DF817201046984700BF07B0E0
:100FC4005DF804FBA0080020AC080020CC08002039
:100FD400D00800209C08002000B583B00190019B3C
:100FE4001B7802211846FFF75FFF00BF03B05DF8CE
:100FF40004FB000000B583B00C4B1B78002B0FD012
:101004000023019308E0019B022B02D00198FFF713
:1010140087FE019B01330193019B032BF3D901E06C
:10102400FFF798FE00BF03B05DF804FB58080020EA
:101034002DE9F04F87B003468DF80F300023059358
:1010440000230493D14B1B78002B04D0CF4B0022F8
:101054001A70FFF7CFFF9DF80F30172B00F229828B
:1010640001A252F823F000BFCD100000E5100000EB
:10107400E51000007711000005120000791200004D
:10108400051300002513000035130000531300005E
:10109400711300009D130000BB130000C91300006E
:1010A400C9130000C9130000C9130000C9130000CC
:1010B40059140000671400007B1400008F14000012
:1010C400A9140000A9140000FFF794FFB04B1846C0
:1010D40003F018FA0590AF4A9DF80F301370E9E158
:1010E4000020FFF7D5FD0346002B0DD00020FFF7AD
:1010F40017FE9DF80F30022B02D14FF4E16301E09B
:101104004FF47A6304930BE00020FFF7EFFD9DF8A2
:101114000F30022B01D1C82301E04FF4C8730493AC
:101124009C4A9DF80F301370994C049B18464FF05D
:1011340000014FF000024FF00003CB0343EA504399
:10114400C20312F5FA71009143F1000301934FF4C5
:101154007A724FF00003DDE9000103F06DFC0246F2
:101164000B46134600221946204603F099F90590D0
:10117400A0E10020FFF78CFD0346002B0DD00020DA
:10118400FFF7CEFD9DF80F30032B02D14FF44873C7
:1011940001E04FF47A6304930BE00020FFF7A6FD0F
:1011A4009DF80F30032B01D1C82301E04FF4C8731D
:1011B4000493784A9DF80F301370754C049B1846BD
:1011C4004FF000014FF000024FF00003CB0343EA5D
:1011D4005043C20312F5FA7A43F1000B4FF47A72CA
:1011E4004FF000035046594603F026FC02460B46D6
:1011F400134600221946204603F052F9059059E19E
:101204000020FFF745FD0346002B06D00020FFF722
:1012140087FD4FF47A63049305E00020FFF766FD31
:101224004FF4C87304935B4A9DF80F301370584C05
:10123400049B18464FF000014FF000024FF00003EA
:10124400CB0343EA5043C20312F5FA7843F1000991
:101254004FF47A724FF000034046494603F0ECFB2A
:1012640002460B46134600221946204603F018F99D
:1012740005901FE10020FFF70BFD0346002B0CD067
:101284000020FFF74DFD9DF80F30052B01D1C82339
:1012940001E04FF47A6304930BE00020FFF726FD8E
:1012A4009DF80F30052B01D1C82301E04FF4C8731A
:1012B4000493384A9DF80F301370354C049B18463C
:1012C4004FF000014FF000024FF00003CB0343EA5C
:1012D4005043C20312F5FA7643F100074FF47A72D1
:1012E4004FF000033046394603F0A6FB02460B4696
:1012F400134600221946204603F0D2F80590D9E09F
:101304000020FFF74DFD234A9DF80F301370204B4A
:10131400002240F6CD41184603F0C2F80590C9E01A
:101324000020FFF7E3FC1B4A9DF80F301370C1E067
:10133400164B01221A700120FFF732FD144B0022D4
:1013440040F6CD41184603F0ABF80590B2E00F4BE0
:1013540001221A700120FFF723FD0D4B00224FF4E8
:101364008041184603F09CF80590A3E0074B012246
:101374001A700120FFF714FD054B002240F6CD4101
:10138400184603F08DF8059094E000BF5108002042
:101394005C08002050080020494B01221A700120EB
:1013A400FFF7FEFC474B00224FF48041184603F040
:1013B40077F805907EE0FFF7E0FC434A9DF80F3094
:1013C400137077E0414B184603F09CF805909DF8A4
:1013D4000F30C3F111030493049B002B33D0059BFE
:1013E400002B30D1049B012B26D9384E049B9BB291
:1013F4001A46C82303FB02F318464FEAE0714FF084
:1014040000024FF00003CB0343EA5043C20312F53A
:10141400FA7443F100054FF47A724FF0000320464A
:10142400294603F009FB02460B46134600221946DF
:10143400304603F035F805900220FFF757FC244BA3
:1014440001221A7036E00220FFF76AFC204B0022CA
:101454001A702FE0FFF7CEFD1B4A9DF80F30137072
:1014640028E0FFF7C7FD0020FFF740FC164A9DF86F
:101474000F3013701EE0FFF7BDFD0120FFF736FCAF
:10148400114A9DF80F30137014E0FFF7B3FD0020EC
:10149400FFF72CFC0120FFF729FC0B4A9DF80F30C5
:1014A400137007E0FFF769FC074A9DF80F301370CB
:1014B40000E000BF059B184607B0BDE8F08F00BFF1
:1014C400510800205C080020500800207C080020FF
:1014D4005808002000B583B00190074B1B6803F047
:1014E4000103002B04D0054B1B781846FFF7A0FD21
:1014F40000BF03B05DF804FB54080020500800202E
:1015040000B583B001900220FFF74AFC00BF03B08E
:101514005DF804FB00B585B00190009100230393AE
:101524002A4A019B13602A4A009B1360019B03F023
:101534000203002B2AD00023029308E00122012198
:10154400029800F055F80390029B01330293029B2A
:10155400032B02D8039B002BF0D0039B002B06D156
:1015640040F2666204211B4802F0F0F80390039BEA
:10157400002B02D102F066F90390039B002B05D1E6
:10158400154A0021154802F05BFF0390019B03F00C
:101594000103002B14D00120FFF770FC039B002BE8
:1015A40005D10F4A00210F4802F04AFF0390039B24
:1015B400002B05D10C4A01210C4802F041FF039095
:1015C400039B184605B05DF804FB00BF54080020D7
:1015D4009C08002074580700DD0F000070580700B5
:1015E400D914000068580700051500006C5807005E
:1015F40084B001900B468DF8033013468DF8023009
:1016040000230393019B032B3CD89DF80230012B4C
:101614000BD19DF80330012B04D1019BDBB20E33B7
:10162400DBB200E000238DF802309DF80330022B7A
:101634000FD0022B23DC002B16D0012B1FD1144911
:10164400019A13465B0013440B449DF802201A7060
:101654001AE00F49019A13465B0013440B4401330B
:101664009DF802201A700FE00949019A13465B00A5
:1016740013440B4402339DF802201A7004E007233C
:10168400039301E007230393039B184604B07047B8
:10169400A008002008B502F0D5F80346184608BD96
:1016A40000B583B000230193104B1B78002B02D0AC
:1016B4008523019314E00D4B00229A600B4B00220A
:1016C4005A600A4B00221A61084B0022DA6008486B
:1016D40000F0E6F9019000F009FA044B01221A70B7
:1016E400019B184603B05DF804FB00BFD40800203A
:1016F4003918000084B001900091019B1B6803938A
:1017040006E0039A009B9A420DD0039B1B68039347
:10171400039B002BF5D1019B1A68009B1A60019B67
:10172400009A1A6000E000BF04B0704784B00190D2
:10173400019B1B680393039B002B03D0039B1A6834
:10174400019B1A60039B184604B0704700B583B030
:101754000190224B1B78002B03D12149E92002F090
:1017640056FF1E4B9B78DBB2002B12D0019B002B43
:1017740003D0019B5B6801209847002002F000FF22
:10178400164BDB680133154AD360002002F00CFFCE
:1017940017E0002002F0F4FE019B002B03D0019916
:1017A4001048FFF7A7FF0D4BDB68002B01D100F0B9
:1017B400B1F90A4BDB680133084AD360002002F018
:1017C400F3FE064BDB68002B04D1054940F20510FB
:1017D40002F01DFF00BF03B05DF804FBD408002035
:1017E40094580700E408002000B585B003468DF83E
:1017F40007309DF80730002B02D10C4B039301E016
:101804000B4B03930398FFF791FF0290029B002B6D
:1018140006D0029B5B689DF8072010469847F1E7C5
:1018240000BF00BF05B05DF804FB00BFDC0800206A
:10183400E408002000B583B003468DF807309DF816
:101844000730002B05D10A4B01225A700020FFF704
:10185400CBFF9DF80730012B05D1054B01229A706F
:101864000120FFF7C1FF00BF03B05DF804FB00BF18
:10187400D408002082B003468DF807309DF8073065
:1018840003F01F0205499DF907305B09012000FAA6
:1018940002F241F8232000BF02B0704700E100E0EB
:1018A40082B0034600918DF807309DF90730002B74
:1018B4000CDA009BDAB20C499DF8073003F00F03F1
:1018C400043B5201D2B20B441A7609E0009BDAB20F
:1018D40006499DF907305201D2B20B4483F8002324
:1018E40000BF02B0704700BF00ED00E000E100E07F
:1018F40082B00190019B1B0B5BB2184602B070478B
:1019040000B583B003460A468DF8073013468DF8B8
:1019140006309DF80630072B03D908496B2002F0E6
:1019240076FE9DF806209DF9073011461846FFF70C
:10193400B7FF00BF03B05DF804FB00BFF858070011
:1019440000B583B003468DF807309DF9073018467B
:10195400FFF790FF00BF03B05DF804FB82B00346BD
:101964008DF807300F4A9DF90730002B00DA1F333A
:101974005B115BB252F823209DF90730594203F002
:101984001F0301F01F0158BF4B425BB222FA03F35D
:1019940003F00103002B14BF01230023DBB218461C
:1019A40002B0704700E100E082B001904FF0804245
:1019B400019BC2F8043300BF02B0704782B00190AB
:1019C4004FF08042019BC2F8083300BF02B0704759
:1019D40082B003468DF807309DF8073003F1804349
:1019E40001221A6000BF02B0704784B00346ADF80C
:1019F4000630BDF8063003F1804300221A60BDF8BA
:101A0400063003F180431B680393039B00BF04B0BB
:101A1400704782B00346ADF80630BDF8063003F1D6
:101A240080431B68002B14BF01230023DBB218463C
:101A340002B0704782B001904FF08042019BC2F81F
:101A4400183500BF02B0704700B583B006238DF887
:101A540007304FF08040FFF74BFF03461846FFF76F
:101A64007DFF034683F00103DBB2002B13D04FF05C
:101A74008040FFF73DFF03461A469DF8073019469C
:101A84001046FFF73DFF4FF08040FFF731FF03465C
:101A94001846FFF755FF00BF03B05DF804FB0000D4
:101AA40000B585B00190019B002B03D10D49A02006
:101AB40002F0ADFD002303930B4B1B79002B02D0E6
:101AC4008523039308E0084A019B1360064B012217
:101AD4001A71054B00225A71039B184605B05DF834
:101AE40004FB00BF24590700E808002008B5074B91
:101AF4001B79002B03D10649B92002F088FDFFF7BA
:101B0400A3FF0120FFF796FF00BF08BDE8080020EF
:101B14002459070008B50A4B1B79002B03D1094946
:101B2400E62002F074FD4FF48270FFF75EFF02209E
:101B3400FFF73AFF0820FFF74BFF00BF08BD00BFC7
:101B4400E80800202459070008B54FF48070FFF717
:101B540060FF0346002B14D04FF48070FFF745FF5D
:101B64000120FFF72BFF114B5B7983F00103DBB2FC
:101B7400002B06D00D4B01225A710C4B1B68002020
:101B840098474FF48270FFF744FF0346002B0AD0B6
:101B94004FF48270FFF729FF0220FFF70FFF034B7A
:101BA4001B680120984700BF08BD00BFE80800205B
:101BB40082B003468DF807309DF8073003F01F020A
:101BC40005499DF907305B09012000FA02F241F84A
:101BD400232000BF02B0704700E100E082B003465A
:101BE40000918DF807309DF90730002B0CDA009B2B
:101BF400DAB20C499DF8073003F00F03043B52019D
:101C0400D2B20B441A7609E0009BDAB206499DF978
:101C140007305201D2B20B4483F8002300BF02B054
:101C2400704700BF00ED00E000E100E000B583B0C4
:101C340003460A468DF8073013468DF806309DF8A2
:101C44000630072B03D908496B2002F0E0FC9DF80D
:101C540006209DF9073011461846FFF7BFFF00BF65
:101C640003B05DF804FB00BF8459070000B583B0DE
:101C740003468DF807309DF907301846FFF798FFA3
:101C840000BF03B05DF804FB00B583B00346ADF8B4
:101C94000630BDF80630184600F026F803461B68E7
:101CA400012B0CBF01230023DBB2184603B05DF8FF
:101CB40004FB00B585B00346ADF80630BDF8063028
:101CC400184600F011F803461A4600231360BDF8C5
:101CD4000630184600F008F803461B680393039B7C
:101CE40000BF05B05DF804FB82B00346ADF80630D2
:101CF400BDF8063003F1804303F5C043184602B033
:101D04007047000082B00190034A019BC2F804337B
:101D140000BF02B0704700BF0060004082B0019075
:101D2400034BD3F80423019B1340184602B07047B9
:101D34000060004082B00190084A019B03F5A27341
:101D440052F82330054943F00102019B03F5A273C5
:101D540041F8232000BF02B0704700BF006000407C
:101D640084B00390029113468DF80730144A039B04
:101D740003F5A27352F82330114923F44F3323F4AB
:101D84004073039A02F5A27241F822300C4A039B75
:101D940003F5A27352F82320029B1B0203F47C5127
:101DA4009DF807301B0403F440330B4304491A43E2
:101DB400039B03F5A27341F8232000BF04B07047CE
:101DC4000060004082B00190054A019B03F5A273B4
:101DD40052F823301B0A03F03F03184602B0704741
:101DE4000060004082B00190064A019B03F5A27393
:101DF40052F823301B0C03F00303DBB2184602B085
:101E0400704700BF0060004000B583B00190019BA3
:101E14001B682F2B04D90B494FF4F37002F0F7FB26
:101E2400019B1B681F2B02D84FF0A04306E0019BC7
:101E34001B6803F01F02019B1A60034B184603B092
:101E44005DF804FBB05907000003005000B585B0ED
:101E54000190084611461A4603468DF803300B4696
:101E64008DF8023013468DF8013001AB1846FFF7A8
:101E7400CBFF03909DF803209DF802305B001A43CA
:101E84009DF801309B001A439DF818301B0242EA6A
:101E940003019DF81C301B04019A1943039B02F5AE
:101EA400E07243F8221000BF05B05DF804FB00B5F2
:101EB40085B003900B468DF80B309DF80B30002253
:101EC400019200220092002200210398FFF7BEFF36
:101ED40000BF05B05DF804FB00B585B0019001AB0F
:101EE4001846FFF791FF0390019A039B02F5E072F5
:101EF40053F8223023F002030293019A039B02F564
:101F0400E072029943F8221000BF05B05DF804FBAB
:101F140000B585B001900B468DF8033001AB18462F
:101F2400FFF772FF0390019A039B02F5E07253F8E6
:101F34002230019A23F44031039B02F5E07243F806
:101F44002210019A039B02F5E07253F822309DF8A7
:101F5400032012041146019A1943039B02F5E0720F
:101F640043F8221000BF05B05DF804FB00B585B04E
:101F7400019001AB1846FFF747FF0390039800F068
:101F840020F80246019B22FA03F303F001031846EA
:101F940005B05DF804FB00B585B0019001AB1846AF
:101FA400FFF732FF0390019A039B02F5E07253F8A6
:101FB40022301B0C03F00303DBB2184605B05DF8B6
:101FC40004FB82B00190019BD3F81035184602B08F
:101FD4007047000000B589B0039002910192184A3D
:101FE40005AB92E8030083E80300039A029B1344C1
:101FF400022B04D9134940F2163002F008FB039B6C
:10200400079311E0079B9B0008AA134453F80C3C68
:102014001846FFF7D6FF0246019B1A60019B043362
:102024000193079B01330793039A029B1344079A76
:102034009A42E7D300BF00BF09B05DF804FB00BFBC
:10204400DC590700B059070084B001900091009B4F
:102054000393019BDB080293019B03F007030193A5
:102064000122019B02FA03F30399029A0A441278AB
:102074001340184604B0704784B001900091009B4F
:102084000393019BDB080293019B03F00703019375
:10209400039A029B13441B785AB20121019B01FA53
:1020A40003F35BB2134359B2039A029B1344CAB2BB
:1020B4001A7000BF04B0704782B001900C4A019BB3
:1020C4001344303393F90030002B09DB084A019B99
:1020D4001344303393F90030072B01DC012300E073
:1020E400002303F00103DBB2184602B0704700BFBF
:1020F400F008002082B00190064A019B134430335B
:1021040093F90030072BCCBF01230023DBB2184620
:1021140002B07047F008002082B00190064A019B8B
:102124001344303393F90030DB43DBB2DB09DBB219
:10213400184602B0704700BFF008002084B0039036
:10214400029101928DF80330029B59B20E4A039B0F
:10215400134430330A461A700B49029B019A41F822
:1021640023209DF8033083F00103DBB2002B08D059
:10217400029B083B039A51B2034A13440A4683F86C
:10218400602000BF04B07047F008002082B00190C6
:10219400044A019B13443033FF221A7000BF02B07B
:1021A400704700BFF008002000B583B001900449D7
:1021B4000198FFF761FF00BF03B05DF804FB00BFA7
:1021C4005409002082B00190044A019B1344303327
:1021D40093F90030184602B0704700BFF0080020A1
:1021E40082B00190034A019B52F82330184602B092
:1021F400704700BFF008002000B589B00390029139
:1022040013468DF80730FF238DF81F309DF80730F3
:10221400002B01D0002300E0082305939DF807302C
:10222400002B01D0082300E00C230493059B0693A4
:1022340014E00F4A069B52F82330B3F1FF3F0AD152
:102244009DF80730029A06990398FFF777FF069BDB
:102254008DF81F3006E0069B01330693069A049B13
:102264009A42E6D39DF91F30184609B05DF804FB85
:10227400F008002082B003468DF807309DF807303F
:10228400094A4FF0FF3142F823109DF80730072B1D
:1022940007D99DF80730083B034A1344FF2283F80B
:1022A400602000BF02B07047F008002000B583B082
:1022B400254B93F86A30002B03D008230093009B2E
:1022C4003EE000238DF8073009E09DF807301846FA
:1022D400FFF75CFF9DF8073001338DF807309DF858
:1022E40007302F2BF1D900238DF8073009E09DF832
:1022F40007301846FFF7BEFF9DF8073001338DF80D
:1023040007309DF807300B2BF1D9062200210F4826
:1023140002F0F9FB06210620FFF788FC0620FFF7F0
:10232400A5FC4FF4BE70FFF7C4FC4FF00040FFF76C
:10233400E9FC054B012283F86A2000230093009BEB
:10234400184603B05DF804FBF0080020540900208F
:10235400044B93F86A30002B14BF01230023DBB233
:1023640018467047F008002000B587B0039002912A
:102374000192039B2F2B04D9364940F2072002F027
:1023840046F9002305930398FFF7C6FE0346002B86
:1023940002D00823059357E0029B9B78C3F34003C4
:1023A400DBB21A4601990398FFF726FF03468DF81E
:1023B40013309DF91330B3F1FF3F43D0029B9B7858
:1023C400C3F38003DBB283F00103DBB2002B13D031
:1023D400029B9B7803F00103DBB2002B03D003982C
:1023E400FFF77AFD05E0029B5B7819460398FFF737
:1023F4005EFD0398FFF7D8FE029B9B7803F002036F
:10240400DBB2002B08D09DF91300029B1B781A46FF
:102414000399FFF7A5FC17E09DF91330083B0E4A1A
:10242400134493F96010029B1B789B015AB29DF9E7
:102434001330083B0A4351B2074A13440A4683F84F
:10244400602001E004230593059B184607B05DF85E
:1024540004FB00BFE4590700F008002000B589B070
:1024640001900B468DF80330019B2F2B04D93D4975
:1024740040F2372002F0CBF80198FFF74DFE0346F7
:10248400002B04D137494FF40E7002F0C0F80198C4
:10249400FFF730FE0346002B2FD00198FFF792FE82
:1024A4000346083B304A134493F960308DF80F30EB
:1024B4009DF80F309B098DF80E309DF80E30032BDC
:1024C4000BD10198FFF752FD0346002B01D00323E3
:1024D40000E002238DF81F3008E09DF80E30012B38
:1024E40001D1022300E003238DF81F309DF81F3033
:1024F40019460198FFF70CFD30E00198FFF7DCFD69
:102504000346002B2AD00198FFF75CFE034606938E
:10251400069B9BB240339BB29B00ADF81630069BE2
:102524001846FFF707FCBDF816301846FFF7C1FB45
:102534009DF80330002B11D00198FFF743FE0346AA
:102544001846FFF74DFE0490049B002B06D0012291
:10255400069B02FA03F31846FFF7D4FB00BF09B049
:102564005DF804FBE4590700F008002000B583B0CF
:102574000190019B2F2B04D908494FF4227002F0DB
:1025840046F80198FFF7F2FC0346002B14BF012321
:102594000023DBB2184603B05DF804FBE4590700DE
:1025A40000B599B00023179306AB00221A605A6055
:1025B4004FF48073ADF8563001231493002316931F
:1025C40021E0BDF856301846FFF75EFB0346002BAA
:1025D4000ED01498FFF7A2FB0346002B08D0BDF8D9
:1025E40056301846FFF765FB179A149B134317934D
:1025F400149B5B001493BDF856300433ADF8563089
:10260400169B01331693169B072BDAD94FF4BE7031
:10261400FFF73AFB0346002B0DD04FF4BE70FFF7D3
:1026240048FB179B43F00043179306AB1A4602215D
:102634000020FFF7CFFC179BDBB2002B29D001232E
:1026440014930023169321E0149A179B1340002B34
:1026540016D01698FFF7B6FB11901698FFF7C2FB39
:1026640003468DF843301698FFF7BAFD0F900F9B81
:10267400002B05D09DF843200F9B114611989847D5
:10268400149B5B001493169B01331693169B072B24
:10269400DAD9179B002B80F2F08000238DF84B30A1
:1026A40004AB00221A605A60002313930AE0139BC0
:1026B4009B0018AA13444FF0FF3243F8582C139B85
:1026C40001331393139B012BF1D900238DF84B3065
:1026D4000023169378E06B4A169B1344603393F9F6
:1026E40000308DF83B309DF83B3023F0C0030D9350
:1026F400644A169B1344603393F90030B3F1FF3FEF
:102704005FD002AB19460D98FFF79EFC0346002BE1
:1027140057D09DF83B309B098DF833300D98FFF767
:1027240051FD03461846FFF75BFD0B900B9B002BF6
:1027340003D19DF83330032B43D19DF83330032B61
:1027440004D104AB19460D98FFF796FC0D98FFF7DA
:1027540022FC03468DF82B3006AB19460D98FFF783
:1027640073FC0990099B002B03D09DF82B30022B9E
:1027740006D0099B002B24D19DF82B30032B20D1AC
:102784009DF83330032B13D19DF82B30022B01D14C
:10279400032300E002238DF823309DF823301946EB
:1027A4000D98FFF7B5FB9DF84B3001338DF84B3096
:1027B4000B9B002B05D09DF833200B9B11460D98E5
:1027C4009847169B01331693169B032B83D99DF8C8
:1027D4004B30002B4CD001238DF84A306B461A46FF
:1027E40002210020FFF7F6FB0023139314E0139B50
:1027F4009B0018AA134453F8602C139B9B0018A940
:102804000B4453F8483C9A4203D000238DF84A30D5
:1028140005E0139B01331393139B012BE7D99DF818
:102824004A30002B03D000238DF84B3020E00023E6
:1028340013931AE0139B9B0018AA134453F8602CBB
:10284400139B9B0018A90B4443F8482C139B9B0033
:1028540018AA134453F8502C139B9B0018A90B443B
:1028640043F8582C139B01331393139B012BE1D989
:102874009DF84B30002B7FF428AF00BF19B05DF8F2
:1028840004FB00BFF008002082B003468DF8073037
:102894009DF8073003F01F0205499DF907305B09D5
:1028A400012000FA02F241F8232000BF02B0704771
:1028B40000E100E082B003468DF807309DF8073050
:1028C40003F01F0206499DF907305B09012000FA55
:1028D40002F2203341F8232000BF02B0704700BF4A
:1028E40000E100E082B0034600918DF807309DF9C5
:1028F4000730002B0CDA009BDAB20C499DF8073044
:1029040003F00F03043B5201D2B20B441A7609E0E0
:10291400009BDAB206499DF907305201D2B20B444A
:1029240083F8002300BF02B0704700BF00ED00E051
:1029340000E100E082B00190019B03F06043B3F139
:10294400005F0CBF01230023DBB2184602B07047BE
:1029540082B00190019B1B0B5BB2184602B070471A
:1029640000B583B003460A468DF8073013468DF848
:1029740006309DF80630072B03D908496B2001F077
:1029840046FE9DF806209DF9073011461846FFF7CC
:10299400A9FF00BF03B05DF804FB00BF485A07005D
:1029A40000B583B003468DF807309DF9073018460B
:1029B400FFF76AFF00BF03B05DF804FB00B583B006
:1029C40003468DF807309DF907301846FFF772FF6C
:1029D40000BF03B05DF804FB82B001900B468DF894
:1029E40003309DF80330019A134401221A6000BF9A
:1029F40002B0704782B001900B468DF803309DF809
:102A04000320019B1344184602B0704784B0019020
:102A14000B46ADF80230BDF80230019A134400228F
:102A24001A60BDF80230019A13441B680393039B98
:102A340000BF04B0704782B001900B46ADF802307D
:102A4400BDF80230019A13441B68002B14BF012304
:102A54000023DBB2184602B0704782B001900091A7
:102A6400019B009AC3F8002200BF02B0704782B0F5
:102A740001900091019B009AC3F8002300BF02B0AB
:102A8400704782B00190019B0122C3F8002500BF6A
:102A940002B0704782B00190019B0022C3F8002568
:102AA40000BF02B0704784B00190009100238DF8FC
:102AB4000F3011E09DF80F309B00009A13449DF8ED
:102AC4000F201968019B02F5AC7243F822109DF89F
:102AD4000F3001338DF80F309DF80F30032BE9D9F7
:102AE40000BF00BF04B0704700B583B00190084632
:102AF40011461A4603468DF803300B468DF8023012
:102B04001346ADF80030BDF90030002B04DA0C494F
:102B140040F2B32001F07BFD9DF80320019BC3F834
:102B24000C259DF80220019BC3F80425BDF8002064
:102B3400019BC3F8082500BF03B05DF804FB00BF88
:102B4400745A070000B585B003900B4601928DF8C6
:102B54000B30019B002B04D1144940F2BE2001F03C
:102B640056FD019B1A689DF80B301946039800F036
:102B74001FF8019B9A889DF80B301946039800F0C2
:102B84003DF8019B9A689DF80B301946039800F0B4
:102B940069F8019BDA689DF80B301946039800F038
:102BA40089F800BF05B05DF804FB00BF745A070044
:102BB40000B585B003900B4601928DF80B309DF85B
:102BC4000B30012B04D90C4940F2CA2001F01FFD3F
:102BD400019B002B04D1084940F2CB2001F017FDE2
:102BE4009DF80B30019A039929335B010B441A6059
:102BF40000BF05B05DF804FB745A070000B583B04C
:102C040001900B468DF803301346ADF800309DF863
:102C14000330012B04D9124940F2D32001F0F7FC10
:102C2400BDF80030002B04D10D494FF4357001F08C
:102C3400EEFCBDF90030002B04DA094940F2D5203E
:102C440001F0E5FC9DF80330BDF80020019929331B
:102C54005B010B4404331A6000BF03B05DF804FB4E
:102C6400745A070000B585B003900B4601928DF8A5
:102C74000B309DF80B30012B04D90D4940F2DD20B7
:102C840001F0C5FC019BB3F1807F04D3084940F2F5
:102C9400DE2001F0BCFC9DF80B30039A5B01134469
:102CA40003F5A563019A1A6000BF05B05DF804FB43
:102CB400745A070000B585B003900B4601928DF855
:102CC4000B309DF80B30012B04D90D4940F2E6205E
:102CD40001F09DFC019BB3F1807F04D3084940F2CD
:102CE400E72001F094FC9DF80B30039A5B01134438
:102CF40003F22C53019A1A6000BF05B05DF804FB7F
:102D0400745A070082B001900B468DF803301346C5
:102D14008DF802309DF803209DF802301B021A43FF
:102D2400019BC3F8102500BF02B0704782B0019028
:102D34000B46ADF80230BDF80220019BC3F8142500
:102D440000BF02B07047000000B583B00190019B42
:102D54001B682F2B04D90B494FF4F37001F057FC77
:102D6400019B1B681F2B02D84FF0A04306E0019B78
:102D74001B6803F01F02019B1A60034B184603B043
:102D84005DF804FBA05A07000003005000B585B0AD
:102D94000190084611461A4603468DF803300B4647
:102DA4008DF8023013468DF8013001AB1846FFF759
:102DB400CBFF03909DF803209DF802305B001A437B
:102DC4009DF801309B001A439DF818301B0242EA1B
:102DD40003019DF81C301B04019A1943039B02F55F
:102DE400E07243F8221000BF05B05DF804FB00B5A3
:102DF40085B0039000230193002300930023012254
:102E040001210398FFF7C2FF00BF05B05DF804FB82
:102E140000B585B0019001AB1846FFF795FF03900C
:102E2400019B012202FA03F31946039800F018F8F3
:102E340000BF05B05DF804FB00B585B0019001AB9F
:102E44001846FFF781FF0390019B012202FA03F366
:102E54001946039800F00EF800BF05B05DF804FBB6
:102E640082B001900091019B009AC3F8082500BF2D
:102E740002B0704782B001900091019B009AC3F8A0
:102E84000C2500BF02B0704700B589B001900091D5
:102E940000238DF81F3050E09DF81F30009AD35C5A
:102EA4008DF81E309DF81E30FF2B38D09DF81E3053
:102EB40003F08003002B14BF012300238DF81D3081
:102EC4009DF81E209DF81F3022F080029B0008A967
:102ED4000B4443F8142C9DF81D30002B0AD09DF8A8
:102EE4001F309B0008AA134453F8143C1846FFF7FC
:102EF4008FFF09E09DF81F309B0008AA134453F884
:102F0400143C1846FFF798FF9DF81F309B0008AA51
:102F1400134453F8143C1846FFF769FF08E09DF882
:102F24001F309B0008AA13444FF0FF3243F8142CBF
:102F34009DF81F3001338DF81F309DF81F30032B8F
:102F4400AAD9019B1B6803AA11461846FFF7ABFDDB
:102F540000BF09B05DF804FB00B587B0039002918F
:102F64000192029B002B03D13E49802001F04FFBCC
:102F7400039B1B79DB003C4A13440593059B1B7997
:102F8400DBB2002B03D008230493049B66E0059B6B
:102F9400019A1A6002990398FFF776FF039B1B6856
:102FA4001846FFF76EFD039B1868029B5979029B34
:102FB4009A79029B1B89FFF797FD039B1868029B74
:102FC400997A029BDB7A1A46FFF79CFE039B1B68E7
:102FD40000211846FFF741FD039B1B68002118469A
:102FE400FFF745FD039B1B684FF48E711846FFF7EE
:102FF4000DFD039B1B684FF488711846FFF706FD0F
:10300400039B1B684FF48A711846FFF7FFFC039B70
:103014001B684FF482711846FFF7F8FC059B1B6888
:10302400002B15D0039B1B681846FFF791FC034641
:103034001A46029B1B7919461046FFF791FC039B25
:103044001B681846FFF784FC03461846FFF7A8FCE4
:10305400059B01221A7100230493049B184607B0B0
:103064005DF804FBCC5A07005C09002000B585B06C
:103074000190019B1B79DB00104A13440393039BCB
:103084001B79DBB2002B03D10D49BC2001F0BFFA40
:10309400019B1B681846FFF75BFC03461846FFF7C5
:1030A4008DFC019B1B681846FFF7F4FC039B002270
:1030B4001A7100BF05B05DF804FB00BF5C09002075
:1030C400CC5A070000B587B00390029111461A4606
:1030D4000B468DF8073013468DF80630029B02220A
:1030E4001A71029B9DF807205A71029B1B68002BE2
:1030F40025D0822305939DF8073003F00403002BA9
:1031040003D0059B43F0100305939DF8073003F0AB
:103114000803002B03D0059B43F0200305939DF87F
:10312400073003F01003002B03D0059B23F080032A
:103134000593039B1B6805991846FFF798FC039BAE
:103144001B684FF482711846FFF760FC9DF9073045
:10315400002B0ADA039B1B689DF8062011461846CB
:10316400FFF748FC0490049B08E0039B1B689DF850
:10317400062011461846FFF72FFC0023184607B017
:103184005DF804FB00B587B0039002910192ADF89D
:103194000230039B1B79DB00344A13440493049BE1
:1031A4001B79DBB2002B04D131494FF4A47001F038
:1031B4002EFABDF80230002B04D12D4940F24910FB
:1031C40001F025FA029B1B681846FFF7B3FB034680
:1031D400002B04D126494FF4A57001F018FA019B85
:1031E4001B681846FFF7A6FB0346002B04D12049B1
:1031F40040F24B1001F00BFA039B1B68029A00216A
:103204001846FFF79FFC039B1B68019A012118468F
:10321400FFF798FC039B1B68BDF802201146184673
:10322400FFF784FD089B03F00103002B02D0102359
:10323400059309E0089B03F00203002B02D004234A
:10324400059301E000230593039B1B680599184629
:10325400FFF703FC089BDAB2082304990398FFF7ED
:1032640031FF0346184607B05DF804FB5C090020F3
:10327400CC5A070000B585B001900B468DF8033099
:10328400019B1B79194ADB0013441B79DBB2002B29
:1032940004D1174940F2731001F0B9F900238DF8F5
:1032A4000F30019800F026F80346002B03D00123C9
:1032B4008DF80F3013E0019B1B6804211846FFF7BB
:1032C4008BFB019800F016F80346002B03D0012372
:1032D4008DF80F3003E09DF80330002BF1D19DF8F9
:1032E4000F30184605B05DF804FB00BF5C090020F0
:1032F400CC5A070000B585B00190019B1B79DB0017
:10330400164A13440293029B1B79DBB2002B04D1AF
:1033140013494FF4C87001F07AF900238DF80F3087
:10332400029B1B79DBB2022B02D001238DF80F30F4
:10333400019B1B684FF482711846FFF77CFB034620
:10334400002B05D0029B01221A7101238DF80F3046
:103354009DF80F30184605B05DF804FB5C090020A9
:10336400CC5A070000B583B0019000914FF48871E6
:103374000198FFF760FB0346002B12D04FF48871CD
:103384000198FFF743FB009B5B7903F00403002BD8
:1033940007D0009B1B68002B03D0009B1B680120F7
:1033A40098474FF48A710198FFF745FB0346002BB9
:1033B40012D04FF48A710198FFF728FB009B5B79C8
:1033C40003F00803002B07D0009B1B68002B03D0DD
:1033D400009B1B68022098474FF48E710198FFF7F9
:1033E4002AFB0346002B12D04FF48E710198FFF78D
:1033F4000DFB009B5B7903F01003002B07D1009BAE
:103404001B68002B03D0009B1B68002098474FF4D7
:1034140082710198FFF70FFB0346002B0FD04FF486
:1034240082710198FFF7F2FA009B01221A71009B46
:103434001B68002B03D0009B1B680320984700BF28
:1034440003B05DF804FB000008B503490348FFF727
:1034540089FF00BF08BD00BF5C09002000C0014017
:1034640008B503490348FFF77DFF00BF08BD00BF4F
:10347400640900200010024008B503490348FFF71F
:1034840071FF00BF08BD00BF6C090020002002408E
:103494002DE9F04F93B0099000238DF84730AAE04E
:1034A4005B4B1A689DF84730DB0013441093109B64
:1034B4001B781C464FF001024FF00003A4F12001D9
:1034C400C4F1200003FA04FB02FA01F14BEA010BF8
:1034D40022FA00F04BEA000B02FA04FACDE90EAB33
:1034E4004C4BD3E90001DDE90E2300EA0204009409
:1034F4000B400193DDE90034234377D0DDE90E234B
:10350400D1430291DB430393424BD3E90023DDE92A
:10351400024521461140049129460B4005933D4B39
:10352400DDE90412C3E90012109B1B781846FFF76B
:103534001DF803468DF83730109B1B781C464FF05E
:1035440001024FF00003A4F12001C4F1200003FAAA
:1035540004F702FA01F10F4322FA00F0074302FADA
:1035640004F62D4BD3E9002306EA020106913B4001
:1035740007939DF837004FF00001109B1B781C4601
:10358400A4F12003C4F1200201FA04F900FA03F3C0
:1035940049EA030920FA02F249EA020900FA04F8A6
:1035A400DDE906344C4508BF43451FD19DF837205B
:1035B400109B5B78012B0CBF01230023DBB29A42E2
:1035C4000CBF01230023DBB2DAB24FF00003CDE9D4
:1035D4000A23109B5B68002B08D0109B5C68109B2F
:1035E4001A789DF8283019461046A0479DF84730B0
:1035F40001338DF84730094B1A789DF847309342D0
:10360400FFF44EAF00BF00BF13B0BDE8F08F00BFA2
:1036140074090020A8090020A009002078090020CE
:103624002DE9704F90B00B900B468DF82B304FF076
:1036340001024FF000030B9EA6F12001C6F1200009
:1036440003FA06F502FA01F10D4322FA00F00543EC
:1036540002FA06F4CDE90E45384B184600F052FF45
:103664000D900D9B002B64D1354BD3E90001DDE9AE
:103674000E2300EA020400940B400193DDE90034B8
:10368400234341D10B98FEF771FF0346002B0FD063
:103694002C4BD3E90001DDE90E2340EA0204029435
:1036A4000B430393274BDDE90212C3E9001213E035
:1036B400DDE90E236FEA020A6FEA030B214BD3E91B
:1036C40000230AEA020104910BEA030305931D4B4C
:1036D400DDE90412C3E90012194BD3E90001DDE965
:1036E4000E2340EA020406940B430793144BDDE9CE
:1036F4000612C3E900121148134B1B680022194635
:1037040000F0CEFE0D9015E0DDE90E236FEA02080D
:103714006FEA03090A4BD3E9002308EA020108917E
:1037240009EA03030993064BDDE90812C3E9001211
:1037340000E000BF10B0BDE8708F00BF800900201A
:10374400A8090020A00900207C09002000B58BB046
:1037540003900B4601928DF80B30019B042B01D88A
:1037640007235AE0FEF7F4FD034683F00103DBB2BE
:10377400002B09D0FEF79AFD0990099B0893089B3A
:10378400002B01D0089B48E0264A039B1360264A7D
:103794009DF80B301370254A019B136024494FF0A8
:1037A40000024FF00003C1E9002322494FF0000258
:1037B4004FF00003C1E9002322E09DF80B30DB0049
:1037C400039A1344079305AB00210A461A800A465C
:1037D4009A7003238DF81430079B9B788DF815306D
:1037E400079B1B78184605AB134A1946FEF7BCFD28
:1037F4000990099B0693069B002B01D0069B0CE0C5
:103804009DF80B305A1E8DF80B20002BD5D10B4A96
:1038140000210B4800F014FE034618460BB05DF877
:1038240004FB00BF74090020780900207C090020F3
:10383400A0090020A80900202536000095340000C6
:103844002C5B070000B583B0114B1B68002B03D120
:103854001049BA2000F0DBFE002301930CE00C4B6E
:103864001A68019BDB0013441B7801211846FEF7FC
:10387400F5FD019B01330193074B1B781A46019B0D
:103884009342ECD30023184603B05DF804FB00BF59
:1038940074090020305B07007809002086B003908B
:1038A4000291019201238DF817309DF81730214AB7
:1038B400039B13601F4A029B53601E4A019B936043
:1038C400039B44F20102934213D0039B44F202028D
:1038D400934221D1019B174AD360164BDB681B88A6
:1038E4001A46144B9A61134BDB685B68114AD36127
:1038F40012E0019B0F4A13610E4B1B699B680D4A32
:1039040053610C4B1B691B680A4A9361094B1B6981
:103914005B68084AD36100BF72B600BF00BF9DF860
:103924001730DBB2002BFAD162B600BF00BF06B07D
:10393400704700BFB009002000B583B00290009129
:10394400019244F2010071466A4600F003F803B0A4
:1039540000BD00BF00B587B003900291019272B61A
:1039640000BF039B44F20102934207D0039B44F23D
:103974000202934205D1019B059303E0019B04934A
:1039840000E000BF074B1B6803F00103002B00D0CD
:1039940000BE019A02990398FFF780FF00BF07B0A9
:1039A4005DF804FBF0ED00E082B003468DF80730CB
:1039B4009DF8073003F01F0205499DF907305B09A4
:1039C400012000FA02F241F8232000BF02B0704740
:1039D40000E100E082B003468DF807309DF807301F
:1039E40003F01F0206499DF907305B09012000FA24
:1039F40002F2203341F8232000BF02B0704700BF19
:103A040000E100E082B003468DF807309DF80730EE
:103A140003F01F0206499DF907305B09012000FAF3
:103A240002F2403341F8232000BF02B0704700BFC8
:103A340000E100E082B003468DF807309DF80730BE
:103A440003F01F0206499DF907305B09012000FAC3
:103A540002F2603341F8232000BF02B0704700BF78
:103A640000E100E082B0034600918DF807309DF933
:103A74000730002B0CDA009BDAB20C499DF80730B2
:103A840003F00F03043B5201D2B20B441A7609E04F
:103A9400009BDAB206499DF907305201D2B20B44B9
:103AA40083F8002300BF02B0704700BF00ED00E0C0
:103AB40000E100E000B585B00190019B002B0AD025
:103AC400074B43F001030393019B9B010293039B68
:103AD4000298984700E000BF05B05DF804FB00BF02
:103AE400A05B070000B583B00190064A019BC2F8B1
:103AF400083506211120FFF7B5FF00BF03B05DF8BC
:103B040004FB00BF0010014008B50D4B4FF4803298
:103B1400C3F844230A4B4FF48032C3F80423112022
:103B2400FFF788FF1120FFF73FFF054B01221A60C2
:103B34002F20FFF7BFFF034B01221A7000BF08BDFF
:103B440000100140EE0A002008B51120FFF742FFE3
:103B54000E4B4FF48032C3F848230C4B4FF48032A1
:103B6400C3F80823094B01225A602F20FFF7A2FF54
:103B7400064B01229A60064B00221A602F20FFF7A1
:103B840099FF044B00221A7000BF08BD00100140C9
:103B9400E00A0020EE0A0020024BD3F80435184650
:103BA400704700BF0010014082B001900091019A5B
:103BB400009BD31A23F07F43184602B070470000DD
:103BC40082B00190034A019BC2F8403500BF02B0A5
:103BD400704700BF0010014086B00190284B1B685D
:103BE400002B03D1264A019B136045E0019B1A6810
:103BF400234B1B681B689A4210D8214B1B68196819
:103C0400019B1A681E4B1B688A1A1A601C4B1A689F
:103C1400019BDA611A4A019B13602DE0019B1B682A
:103C24000393174B1B680593154B1B68049309E01A
:103C3400049B1B68039AD31A0393049B0593049B68
:103C4400DB690493049B002B04D0049B1B68039A38
:103C54009A42EDD8049B002B05D0049B1A68039B61
:103C6400D21A049B1A60019B039A1A60019B049A5E
:103C7400DA61059B019ADA6100BF06B0704700BFA4
:103C8400DC0A002000B587B001902A4B1B6803931F
:103C9400284B1B680593059B049308E0049A019B39
:103CA4009A4208D0049B0593049BDB690493049B0C
:103CB400002BF3D100E000BF049B002B01D10023B3
:103CC40033E0059A049B9A4214D11A4B1B68DB69B2
:103CD400184A1360174B1B68002B0BD1164B01229B
:103CE4009A60164B00221A60154B01221A702F207D
:103CF400FFF7E0FE049B1B680293049BDA69059BB3
:103D0400DA61059BDB690493049B002B05D0049BBB
:103D14001A68029B1A44049B1A60064B1B68039A98
:103D24009A4214BF01230023DBB2184607B05DF8A2
:103D340004FB00BFDC0A002000100140E00A002060
:103D4400EF0A002008B51120FFF75CFE00BF08BD94
:103D540008B51420FFF756FE00BF08BD00B583B0B8
:103D64000190019B5B69019A92691046984700BFD4
:103D740003B05DF804FB000000B585B02B4B1B6855
:103D8400002B4ED000230193FFF706FF0246284B79
:103D94001B6819461046FFF707FF0290234B1B6868
:103DA40003931DE0039B1B68029A9A421CD3039B56
:103DB4001B68029AD31A0293039B1B68019A13444B
:103DC4000193039B0093039BDB690393009B1B7C80
:103DD400002B05D0009B00221A740098FFF7BEFF49
:103DE400039B002BDED100E000BF124B1A78124B6C
:103DF4001B789A420CD1104B1B780133DAB20E4B6C
:103E04001A700D4B1B78022B02D10B4B00221A7037
:103E1400094B1B781946094A019B42F82130FFF7E8
:103E240097FF00BF05B05DF804FB00BFDC0A00206B
:103E3400E00A0020EC0A0020ED0A0020E40A002039
:103E440082B00190184B1A78184B1B789A4223D0F1
:103E5400154B1B780133DAB2134B1A70124B1B78D3
:103E6400022B02D1104B00221A700F4B1B781A46FA
:103E74000F4B53F82220019B1A60019B1A680D4BCB
:103E84001B6813440B4A13600A4B1B6823F07F43DF
:103E9400084A1360012303E0019B00221A600023F7
:103EA400184602B0704700BFEC0A0020ED0A00205B
:103EB400E40A0020E00A002088B0039002910192F5
:103EC4000023079338E0204B1B680693069B1B686E
:103ED400039A9A4206D2069B1A68039BD21A069B3F
:103EE4001A602EE0069B1B68039AD31A0393069B61
:103EF4001B68079A13440793069B00221A60124B0F
:103F04001B680593069BDB690F4A1360069BDB68FD
:103F1400002B11D0029A079B134423F07F42069B87
:103F24005A60069BDA68069B9A60019B1A68069B96
:103F3400DA61019B059A1A60034B1B68002BC2D1FE
:103F440000BF00BF08B07047DC0A002000B589B08C
:103F5400019000238DF81F30664B1B680593AAE07F
:103F6400019B002B05D0019B0693069BDB69019303
:103F740061E0614B1B781A4613465B001344DB0077
:103F84005D4A1344043304935B4B1B780133DAB268
:103F9400594B1A70584B1A78574B9B789A4202D156
:103FA400554B00221A70049B5B680693049B1B7894
:103FB400032B1ED0032B7EDC012B1FD0022B7AD1C6
:103FC400049B5B681846FFF75DFE0346002B02D096
:103FD40001238DF81F30069B00221A746BE0454BB9
:103FE4001B680393039B00221A74039BDB69414AF9
:103FF4001360404B1B68002BF1D15CE000BF069BB3
:104004001B7C002B00D056E0049B9A68069B5A60E8
:10401400049BDA68069B9A60049B1A69069BDA6023
:10402400049B5A69069B9A61344B1B78002B02D07F
:10403400069B00225A60069B5A68314B1B68D31AB0
:1040440023F07F432F4A93420ED8069B5B682C4A89
:10405400126811461846FFF7A7FD0246069B9B68A7
:104064001A44069B1A6017E0254B1A68069B5B6886
:1040740019461046FFF798FD0290069B9B68029A2A
:104084009A4206D2069B9A68029BD21A069B1A6031
:1040940002E0069B00221A60069B00225A60069BDF
:1040A40000229A60069B01221A74069B0022DA61A0
:1040B4000698FFF791FD019B002B7FF451AF0E4B47
:1040C4001A780D4B5B789A427FF44AAF9DF81F3003
:1040D400002B04D1074B1B68059A9A4201D0012397
:1040E40000E0002303F00103DBB2184609B05DF8D9
:1040F40004FB00BFDC0A0020D0090020EF0A0020E6
:10410400E00A0020FEFF7F0010B588B00190274B25
:104114001B68002B44D0254B1B681B680793FFF7D3
:104124003BFD0690224B1B68059305990698FFF703
:104134003BFD0346033304931E4B1B7883F00103BA
:10414400DBB2002B01D0FFF7DFFC049A079B9342FC
:1041540038BF1346059A13440593059B23F07F4308
:1041640005930598FFF72CFDFFF716FD03900699BC
:104174000398FFF719FD0346DC1C06990598FFF721
:1041840013FD03469C420DD9FFF706FD034618466E
:10419400FFF716FD2F20FFF78DFCFFF7D3FD01E09D
:1041A400FFF7D2FC00BF08B010BD00BFDC0A00203E
:1041B400E00A0020EE0A002000B587B00023019336
:1041C40000238DF81730194B1B680493184B1B6898
:1041D40003936B461846FFF733FE03468DF80B3006
:1041E4009DF80B30002B08D0009B01AA04991846B7
:1041F400FFF762FE01238DF81730019B1846FFF785
:10420400A5FE0346002B02D001238DF817309DF83C
:104214001730002B02D00398FFF776FF054B0022DE
:104224001A7000BF07B05DF804FB00BFE00A00206D
:10423400DC0A0020EF0A002082B003468DF8073024
:10424400034A9DF80730537000BF02B0704700BFA7
:10425400D009002084B00190144B5B7801338DF8B1
:104264000F30124B9B789DF80F209A4202D1002305
:104274008DF80F300D4B1B789DF80F209A4201D119
:1042840000230FE0019B9DF80F201A70074B5B7809
:104294001A4613465B001344DB00044A13440433F8
:1042A4000293029B184604B0704700BFD009002057
:1042B40000B589B003900291019200930023079303
:1042C400002000F05DF90DF117031846FFF7C2FF57
:1042D4000690069B002B02D10423079318E0069B4B
:1042E40001221A70069B039A5A60FFF755FC024696
:1042F400069B9A60069B029ADA60069B019A1A61F1
:10430400069B009A5A619DF817301846FFF794FFF0
:10431400002000F049F9079B002B01D1FFF718FD9D
:10432400079B184609B05DF804FB00B587B00190FF
:104334000B468DF8033000230593002000F020F98C
:104344000DF10F031846FFF785FF0490049B002B23
:1043540002D1042305930BE0049B9DF803201A70FB
:10436400049B019A5A609DF80F301846FFF764FFCA
:10437400002000F019F9059B002B01D1FFF7E8FCA0
:10438400059B184607B05DF804FB000008B50E4B0A
:104394000022C3F840210C4B0022C3F844210A4BED
:1043A4000022C3F84821084B0022C3F84C21064BD5
:1043B4000022C3F80021044B0022C3F80421FFF7B4
:1043C400DBFC00BF08BD00BF0010014008B5FFF7CB
:1043D400F3FE00BF08BD000008B5FFF7B5FB134BA3
:1043E40000221A70114B00225A70104B0B229A7043
:1043F4000F4B00221A600F4B00221A700E4B002242
:104404001A701420FFF716FB06211420FFF72AFB6D
:104414001420FFF7C9FA0020FFF764FBFFF7BCFB89
:104424000346064A13600023184608BDD00900203D
:10443400DC0A0020EC0A0020ED0A0020E00A00203B
:1044440086B003900B4601928DF80B30134B9B788A
:10445400002B01D108231EE0019B002B01D107236F
:1044640019E0039B002B01D1072314E0039B1B6875
:104474001B7C002B01D008230DE0039B1B680593D4
:10448400059B00221A74059B9DF80B205A74059B0A
:10449400019A5A610023184606B07047D0090020DB
:1044A40000B587B0039002910192039B0593144BCE
:1044B4009B78002B01D108231EE0039B002B01D124
:1044C400082319E0029B042B01D8072314E0059B61
:1044D4005B69002B01D108230EE0059B5B7C012B5B
:1044E40001D1029B00E000230493019B049A0299EA
:1044F4000598FFF7DDFE0346184607B05DF804FB98
:10450400D009002000B585B00190019B03930D4BA9
:104514009B78002B01D1082310E0019B002B03D0D2
:10452400039B5B69002B01D1082307E0039B002256
:104534001A7402210398FFF7F8FE0346184605B0E3
:104544005DF804FBD009002072B600BF034B1B6862
:104554000133024A136000BF704700BFF00A002015
:10456400064B1B68013B054A1360044B1B68002B78
:1045740001D162B600BF00BF704700BFF00A00203F
:1045840000B583B0019000F025F80346012B03D059
:104594000449432000F03BF8FFF7D6FF00BF03B007
:1045A4005DF804FBA85B070000B583B003468DF8F3
:1045B400073000F00FF80346012B03D004495120C3
:1045C40000F025F8FFF7CCFF00BF03B05DF804FB53
:1045D400A85B070084B0EFF305830193019BC3F349
:1045E40008030393039B002B0DD1EFF31483009373
:1045F400009B0293029B03F00103002B0CBF0123D9
:104604000023DBB200E00123184604B0704700B574
:1046140085B003460091ADF80630BDF80630ADF81C
:104624000830009B039302AB1A46002144F20200B7
:10463400FFF790F900BF05B05DF804FBBFF34F8F9F
:1046440000BF074BDB6803F4E0620549054B1343E5
:10465400CB60BFF34F8F00BF00BF00BFFCE700BFBC
:1046640000ED00E00400FA05024B034A1A6000BFA3
:10467400704700BF100000200090D00308B500F080
:1046840027F90346002B0ED04FF080430022C3F8D5
:104694000C214FF080430022C3F810214FF08043D7
:1046A4000022C3F8382500F037F90346002B76D0F2
:1046B4004FF080537D4AD3F80434C2F820354FF0CC
:1046C40080537A4AD3F80834C2F824354FF0805323
:1046D400764AD3F80C34C2F828354FF08053734A25
:1046E400D3F81034C2F82C354FF080536F4AD3F806
:1046F4001434C2F830354FF080536C4AD3F8183470
:10470400C2F834354FF08053684AD3F81C34C2F8E9
:1047140040354FF08053654AD3F82034C2F844350D
:104724004FF08053614AD3F82434C2F848354FF02F
:1047340080535E4AD3F82834C2F84C354FF0805386
:104744005A4AD3F82C34C2F850354FF08053574AA4
:10475400D3F83034C2F854354FF08053534AD3F869
:104764003434C2F860354FF08053504AD3F83834AB
:10477400C2F864354FF080534C4AD3F83C34C2F845
:1047840068354FF08053494AD3F84034C2F86C3549
:104794004FF08053454AD3F84434C2F8703500F0E2
:1047A400DFF80346002B02D0414B424A1A6000F066
:1047B400E9F80346002B03D03F4BFB22C3F818252E
:1047C40000F0F2F80346002B0AD03C4B1B6823F0A0
:1047D4000F023B4B1B6803F00F03384913430B6074
:1047E40000F0F4F80346002B03D0364B4FF400726C
:1047F4001A6000F0FDF80346002B0DD04FF0804303
:10480400D3F8003403F00103002B05D04FF08043AC
:104814006FF00102C3F800242B4BD3F888302A4AE6
:1048240043F47003C2F88830BFF34F8F00BFBFF367
:104834006F8F00BF4FF01023D3F80032002B05DB3D
:104844004FF01023D3F80432002B2BDA1F4B012234
:10485400C3F8042500BF1D4BD3F80034002BFAD055
:104864004FF010231222C3F8002200BF174BD3F8D5
:104874000034002BFAD04FF010231222C3F8042284
:1048840000BF124BD3F80034002BFAD00F4B002298
:10489400C3F8042500BF0D4BD3F80034002BFAD025
:1048A400FFF7CCFEFFF7E0FE00BF08BD00C00040EC
:1048B4008C5600404881030000F00040E40E0040A4
:1048C400580200104096024000ED00E000E0014074
:1048D4000F4B1B68082B17D10E4B1B68002B01D103
:1048E400012312E00B4B1B68012B01D101230CE0C7
:1048F400084B1B68022B01D1012306E0054B1B6802
:10490400032B01D1012300E001231846704700BFA7
:1049140030010010340100100F4B1B68082B17D115
:104924000E4B1B68002B01D1012312E00B4B1B68BB
:10493400012B01D101230CE0084B1B68022B01D190
:10494400012306E0054B1B68032B01D1012300E082
:1049540001231846704700BF3001001034010010D5
:10496400064B1B68082B05D1054B1B68002B01D196
:10497400012300E000231846704700BF30010010F7
:1049840034010010064B1B68082B05D1054B1B682E
:10499400002B01D1012300E000231846704700BF1B
:1049A4003001001034010010064B1B68082B05D1A0
:1049B400054B1B68002B01D1012300E0002318469E
:1049C400704700BF3001001034010010064B1B6813
:1049D400082B05D1054B1B68002B01D1012300E0F6
:1049E40000231846704700BF300100103401001046
:1049F4000F4B1B68082B17D10E4B1B68002B01D1E2
:104A0400012312E00B4B1B68012B01D101230CE0A5
:104A1400084B1B68022B01D1012306E0054B1B68E0
:104A2400032B01D1012300E001231846704700BF86
:104A3400300100103401001053EA020C61D02DE95A
:104A4400F04BB3FA83F51E0007BFB2FA82F502FAFF
:104A540005F403FA05F41646C5F120051EBF22FA33
:104A640005F73C43203556EA044C4FEA144418BF7A
:104A74000134A3464FF00009C846904271EB030C81
:104A840039D3094207BFB0FA80F700FA07F6B1FA42
:104A940081F701FA07F6C7F120071EBF20FA07FCC9
:104AA40046EA0C062037B6FBFBFC7F1B103F07F0E1
:104AB4001F04C4F120060CFA04F42CFA06F644BFD1
:104AC40034460026202FA4BF2646002454EA060CB0
:104AD40008BF012418EB040849EB0609A4FB027C77
:104AE400C01B06FB02CC04FB03CC71EB0C0190420F
:104AF40071EB030CC5D20B46024649464046BDE85D
:104B0400F08BB2FBF3F28446002A2DD010F0030F91
:104B140004D000F8011B013A26D0F7E7C9B241EAF4
:104B2400012141EA0141202A12D3A2F120022DE9F8
:104B3400F0030B460C460D460E460F468846894642
:104B4400A0E8FA03203AFBD2BDE8F00320320BD0F0
:104B5400042A05D340F8041B043A05D0042AF9D2E8
:0C4B640000F8011B013AFBD160467047CD
:104B7000433A5C55736572735C415355535C4465AD
:104B8000736B746F705C6E726635322D70776D2D3D
:104B9000617564696F2D636F64655C6D61696E2E0C
:104BA000630000006E5246355F53444B5F763135EB
:104BB0005F332F6D6F64756C65732F6E7266782F1F
:104BC00068616C2F6E72665F6770696F2E68000097
:104BD000FF00FF00FF00FF000000FF00FF00FF00DC
:104BE00000000000FF00FF00FF000000000000FFC9
:104BF00000FF0000FF0000FF0000000000000000B8
:104C0000FF00FF00FF00FF00FF00FF00FF00FF00AC
:104C1000FF0000FF000000FF00FFFEFFFFFEFF009F
:104C2000FF00FF00FFFF00FF00FF00FF0000FF008C
:104C300000FF00FF00FF00FF0000FF0000FF00FF7B
:104C40000000FF0000FF00FF000000FF00FF00FF6A
:104C500000FF00FFFEFF00FF00FF00FF00FF00FF5E
:104C600000FF000000FF00FF0000FF00FF00FF004A
:104C7000FF0000FF00FF0000FF00FF00FF0000003A
:104C8000FF00FF00FF00FF00FFFF00FF0000FF002C
:104C9000FF00FF00FF00FF0000FF00FF000000001A
:104CA000FF00FF00FF00FF00FF00FF00FF00FF000C
:104CB00000FF00FF00FF0000FF00FF00FF00FF00FB
:104CC000FF000000FF00FF00FF0000FF0000FF00EA
:104CD000FF00FF00FF0000FF00FF0000FF00FF00DB
:104CE000FF00FF00FF00FF00FF00FF00FF0000FFCC
:104CF00000FF00FF00FF00FF00FF0000FF00FF00BB
:104D0000FF0000FF00FF00FF00FF00FF00FF00FFAB
:104D10000000FF00FF0000FF00FF0000FF00FF0099
:104D200000FF00FF00FF00FF0000FF0000FF00FF8A
:104D300000FF00FF0000FF00FF00FF00FF00000079
:104D4000FF00FF00FF00FF00FF0000FF00FF00FF6B
:104D500000FF00FF00FFFEFFFEFFFEFFFEFEFDFC6A
:104D6000FBFCFDFEFEFDFEFDFCFCFBFBFDFF01016F
:104D7000FFFEFDFE00010001020203020102030426
:104D80000301000000010303020100FFFEFEFF001B
:104D9000010100FFFEFEFEFF00FF00FF00FF00001C
:104DA00001010000FF00000101020100FFFFFFFE02
:104DB000FFFEFFFEFFFEFFFEFDFEFDFEFEFDFEFD13
:104DC000FEFEFDFEFDFEFDFEFDFCFDFDFDFF000007
:104DD000FFFFFEFEFF0103030200FEFDFDFF0102D7
:104DE00000FDFBFBFE0101FFFDFDFF0001000101D5
:104DF000020100FFFEFF00FFFEFE000100FFFDFEBE
:104E00000001020100010000010001000100FF009B
:104E1000FF00FFFDFCFDFEFF00FEFDFCFDFEFFFFB1
:104E2000FDFCFDFE0000FFFEFEFDFDFEFFFF00FF9E
:104E3000FEFDFF0000FFFEFDFEFF000000FEFDFD89
:104E4000FEFFFF00FFFEFEFF00FFFFFEFFFF010071
:104E5000FFFFFEFF00FFFEFFFFFF0000FF0000FF5F
:104E600000FF00FF00FF00010000FFFFFE00010146
:104E700000FF0001020100FF000102020100010227
:104E8000020100FF000201010000010201FFFEFE1D
:104E9000000101FFFDFDFEFFFFFEFCFBFCFDFDFC34
:104EA000FBFCFBFAFBFAFBFAFBFAFAF9FAFBFCFB58
:104EB000FAF9FAFBFAFBFAFBFCFCFDFCFBFCFCFD3F
:104EC000FEFDFEFFFEFEFFFEFF00000100010203EB
:104ED000030201020304050404050506060506078E
:104EE000080908080808090A090A0907060608093E
:104EF0000807040304050604030304040302010075
:104F00000101FFFDFDFCFAF8F4F1F1F0F0EEEBE940
:104F1000E7E8E7E6E5E4E5E7E8E9EAEAECEDEFF003
:104F2000F1F2F3F7FAFCFDFDFDFF010304040507B0
:104F30000809080708090A0B0A0B0C0C0B0C0C0CCF
:104F40000D0C0D0E0F0D0A090C121718110B0B1278
:104F50001A1C17100D111719150F0C0D10100E0A31
:104F600008070808060502FEF8F3F0EFEEECE9E4A6
:104F7000E0DFDDDAD6D3D2D3D6D8D9D8D8D9DBDFA3
:104F8000E2E4E6EAF0F5F9FBFBFD000307090B0C90
:104F90000E1011100E0C0B0C0E0D0D0B0A08060551
:104FA00003020102020203020000FF0000020305E7
:104FB000060708090808090B0E0F0F0E0F10111035
:104FC000100F100F100F0F0E0D0D0C0B0A09090911
:104FD00008090809080807060706060400FBF7F594
:104FE000F4F3EFEBE8E5E4E0DCD9D8D9DAD9D9DAA3
:104FF000DBDCDCDFE2E4E5E8EDF2F6F8F9FBFDFFEF
:105000000206090A0B0B0D0E0D0B0A090A0C0B0AFE
:1050100009070504030201FF000203020100FFFF6C
:1050200000010304050607080908090A0B0C0D0E08
:105030000E0F100F100F0E0F101111100F0F101078
:105040000F0E0D0E0F100F0E0F0F0E0C090704019F
:1050500000FEFDF8F4EFECE9E7E3DFDDDEDDDCD9AF
:10506000D6D7D8D8D9D9DCDDE0E1E3E6E7E8EAED48
:10507000F0F3F5F7F9FBFDFF00010204060809094A
:10508000090809090A0B0C0B0C0C0D0E0D0D0C0D6B
:105090000F0F10100F10101110100F101011101012
:1050A0000F100F100F0F0E0D0E0E0F0E0E0D0C0D1C
:1050B0000C0D0C0B0A0B0C0B0A09060401FEFCFA82
:1050C000F9F8F5F1EDEAE8E5E1DDDCDDDEDCDAD981
:1050D000D9DAD9DADBDCDEE1E4E7E8E8E9EBEFF2A4
:1050E000F4F6F9FBFEFF0001010204060708090AB5
:1050F0000B0A0B0C0B0C0C0E0F100F0F0E0D0D0EE0
:105100000F10100F0F100F100F0E0F0E0F100F0FAC
:105110000E0D0E0D0E0D0C0D0D0E0E0D0C0C0D0EBC
:105120000D0D0C0C0D0C0907050402FFFDFCFAF532
:10513000F2EFEEEBE7E3E1E0E1DFDDDBDADBDCDC45
:10514000DDDEDFE0E3E5E6E7E8EAEDEFF1F2F4F6D5
:10515000F8FAFBFBFCFDFF01020304060607060745
:10516000080A0A0B0C0C0D0E0E0D0D0E0E0F101171
:10517000100F101011100F0F10111211100F10102E
:105180000F100F0F0F0E0F0E0E0D0D0E0D0E0D0D3D
:105190000C0B0A0908060401FFFEFCF9F4F1EFED1F
:1051A000EAE6E3E2E2E1DFDDDCDBDCDBDCDDDEDF07
:1051B000E1E3E4E5E6E7E9ECEEF0F2F4F5F7F8FA1E
:1051C000FAFBFDFF010203030405060708090A0BA9
:1051D0000C0C0D0E0D0E0E0F0F10111111121110DF
:1051E000111211121112111211101110100F1010B2
:1051F000100F0F0E0E0F0E0E0D0D0C0D0C0B0907E0
:1052000007050301FFFCFAF7F4F2F0ECE9E6E5E448
:10521000E3E1DEDEDDDCDEDDDEDFE0E1E3E4E5E68A
:10522000E7E8EBEDEFF0F1F3F4F5F7F8F9FAFBFD51
:10523000FF0001020203050607080A0A0B0C0D0E07
:105240000D0E0D0E0F10100F100F100F100F10106D
:105250000F101110100F0E0F100F0F100F0F0F0F58
:105260000E0F0E0D0E0F0E0E0D0C0B090807050389
:1052700002FFFCF8F6F4F2EEEAE8E7E6E5E3E0DF49
:10528000DEDFDEDFE0E1E0E2E3E4E6E6E8EAECEEE2
:10529000EFF0F1F2F3F4F5F6F6F5F2F0F2F70001C3
:1052A000F9FAFF050808090E12121012100F15194D
:1052B00018140F0E0E1012100F0F0D0C0D0C0C0DFC
:1052C0000F141716110F13171B1F1F1E1E1E21254B
:1052D0002624201C150E0B0C0C0C03F5E9E1DEDC7A
:1052E000DAD6D0CBC5C0BDBABCC1C7C9CAC8C8CB45
:1052F000D3DEE9EFF1F1F5FC03080D13181B1A18C2
:1053000017191B1F221F18110A090A090703FDF9A3
:10531000F3EEEDEFEFF0EFEEEAE9EBF0F6FAFBFC7F
:10532000FEFF02080F15191B1C1D1F24282C2E2EF2
:105330002D2B292A2C2B2B2A2725242324231E1509
:105340000A00FBFE0201F3DED0CBCDD0CDC4BDBB45
:10535000B8B3AFB0B9C3C8C8C6C5CAD5E3F1F8F889
:10536000F7FB030C141A212525201C1D22272723B7
:105370001D140C0A0B0A06FFF9F6F2EDEAEBEEF04B
:10538000EDE8E5E7EBF1F6F9FAFBFC01070E14197D
:105390001E212223272C303536322E2E3132323246
:1053A000302E292018120C080402FFF4E1D2CFD4C9
:1053B000D9D5C7BEBBBCBAB7BAC2C9C8C4C4C9D1A3
:1053C000DCE4EDF3F3F3F8020D15181A1B1A1819A3
:1053D0001D2225211A150F0D0E0E0D0900F7F3F2EF
:1053E000F2F2F1EFEDE9E6E6EBEFF3F5F4F5F8FDB7
:1053F000050F151A1B1B1F262E353A3B3A393C3E2A
:105400003C3A342E2B241813130CFEF0E6E3E3DAB7
:10541000CEC7C6C3BDB6B4BCC2C1BDBCC2C9CED363
:10542000DAE2E7EAECF3FD03090F121416171A1F6C
:105430002221201E1A18171617140E0A080401003C
:10544000FFFDFAF5F1F2F4F5F4F4F6F9FAFD0208CD
:105450000C0E0F121923292A2D2F2F2D2620252936
:105460002B2A1904FDFE0101F7E7E0DED7CEC8C8FC
:10547000D1D6CCC0BBBFCAD4D5D6D8D6D9DEE3ED01
:10548000F7FCFFFEFAFE07111A1A14111314171D68
:105490001F1E1B120C0F111315110C07010005081C
:1054A0000705FFFBFBFCFF0408080707080C0F12A9
:1054B000161F23221D1819191A1C1A1C1906F6F595
:1054C000FA00FDEDDFDEDED7D0CFD5DCD8CAC4C907
:1054D000D2D9DDDCDDDEDBDDE5EFF8F9F7F8F8F950
:1054E000FF0610150F06050A1116191613100B0AE0
:1054F000101415140F0A08070A10120F0C060509DC
:105500000D111515121011171E2020232424211906
:1055100013161D1E1B10FBF2F7FBF8F0E2DBDCD7C5
:10552000CCC5C7D1D7CCBCB9C3CFD6D4D2D7DCDD9C
:10553000DDE1ECF8FDFBF8F7FC070D1113100C0C86
:105540000D10171D1A130C090F161614110E0C0B43
:10555000090C12120F0A070A0E1114161513121451
:105560001921252726211E19151921211F12FCF5A5
:10557000FBFEFEF6E7E0DED5CCCCD0D7D8C8BCBE6B
:10558000C6CED5D4D4D7D4D3D9E3EDF5F3F0F1F02A
:10559000F501090E0D0601050A0E1518151009066C
:1055A0000E171A16100B0B0D0E121616110A060AFC
:1055B00012181816141416181D23282C2A21181531
:1055C00018212B2A1A04F9FE0404FCF2ECE8DBCDC6
:1055D000CCD7E3DECABABCC7CED0D0D4D7D2CBCDDD
:1055E000DBEBF4F1EBE9EBF0FB050B0A03FEFF0448
:1055F0000B121713090200081316130D0907070AE7
:1056000010181A140C0A0E171D1D1E1D1B1B1F241B
:105610002B30302B2017161E2E362103FB000809D5
:10562000FAEEF3F1DECAC6D6EAE4C8B9BEC9CFCDF8
:10563000CCD7DCD0C7CADAEDF1EAE8E9E9EEF5014A
:105640000B08FCF9FE030B12110F0900000A1114DC
:10565000120C0A08070C141818130E0F14181D2228
:10566000211C1A1D242B2E2F2D2117151A31391B01
:105670000200050C09F7F500F6DDCBCDE4F5E2C834
:10568000C3C9D0CFC9D0E3E1CDC0C5DCF0ECE2E1C5
:10569000E1E4E9ECF90601F5F2F2FC0C0F0C0A0268
:1056A000FE050A0F1616100C0609161D1D1A1412F7
:1056B00017191B232826211B1D282F322C1E1816D4
:1056C0001C2D28130A080605FCF2FA01F2DCCED3E1
:1056D000E8EFDBCED0D5D7D1CBD8EAE6D7CDD1E332
:1056E000F0EDE9E7E7EBECECF3F9FBFAF3EDF400AE
:1056F0000607FEF7FB020404060A100D0305101945
:105700001D1711161D1E1F21252B2B25262E353268
:105710002720202E39261010171910FCF50205F24B
:10572000DBD4E0EEE3CBC6D1D7D1C3C3D5DED3C63D
:10573000C8D6E3E0D9DDE4E7E7E5ECF6F7F3F4F704
:10574000FBFF00040A0704050B10120F0D111312C2
:105750001415191C1815191D1F1F1E202425262776
:105760002A261F1D1E283324100F14151206FF07AA
:1057700004F3E5E3EDF6EAD6D3DBDDD8D0D2DEDF05
:10578000D0C7CCD8E2DDD3D7DCDBDCDCE2EDEAE16C
:10579000E2E8EEF4F5F5F8FAF9FB02070C0D0A0A57
:1057A0000E12181D1D1E1E1C1E25292D2D2B2C2FE3
:1057B0003337352D2A282C393520191B1C190D0299
:1057C000081001EDE2E6F6F5DDD1D8DFDDD1C8D66F
:1057D000E4DBCAC6CFDEDFD3D2D9DAD8D5D7E3E847
:1057E000E1DDE1E5E7EBEEF3F6F1F1F8FE040605A5
:1057F000080C0D10161B1E1F1C1F24272B2C2C2DD4
:10580000303335342D292A2E3734221A1E1D191112
:10581000090B0E02F2ECF0F9F7E7DDE1E5E2DCD985
:10582000E1E9E1D4D4DDE6E6DDDCE3E2DDDADDE783
:10583000EAE1D9DDE3E5E4E5E8EBE8E5EAF1F7FAEA
:10584000F9F9FC01050B10131717181C232A2E2E2B
:105850002D30353B3C342F31343D3B282126241D4F
:10586000140B0D1105F3ECEEF5F3E3DADFE2DED70E
:10587000D5DDE4DDD2D4DCE5E5DEE0E8E7E3E3E630
:10588000EEEFE6E2E8ECEDECECEFF0ECEAEFF5F849
:10589000F6F4F6FAFDFF04080B0C0B0E151B212382
:1058A00023262A2F3536312F30363F3B2D2A2D2AFD
:1058B000251C161A1A0BFDF7F8FCF6E8E4E6E2DB05
:1058C000D5D6DFE0D4CCD0D7DAD5D2D9DED8D2D570
:1058D000DEE6E3DADCE5E7E5E5EBF4F4EEEDF4FE35
:1058E0000201FE0307080A0E12161614161A1D22CC
:1058F00024242627292E2E2926272E383222202717
:10590000272118141A1B0CFEFB0105FCEDECF1ED30
:10591000E5DFE2EAE9DBD4D9E0DFD9D5DCDFD7D0B7
:10592000D2DAE0DCD1D2DADDDBDADFE6E7E2E1E8A9
:10593000F2F7F8F6FA0004080C11161918191E25CA
:105940002B2C2B2C30353735302E3135393428245B
:1059500027251F1712151409FCF8FBFEF8EDE8ECDB
:10596000EBE4E0E2E9E9E0D9DDE3E4E0DEE2E4DE15
:10597000D9DBE1E6E1D9D8DEDFDCDDE1E4E3DFDE3F
:10598000E6EDEFEFF0F3F7FAFE04090D0E10141A2E
:105990001F25282A2C2E323738343234383E392EFF
:1059A0002B2D2B241C1718160B00FCFCFCF5EBE927
:1059B000EBE8E1DDDFE5E4DCD7DCE1E1DCDBE2E5DF
:1059C000E0DBDCE3E8E4DDDEE4E6E2E0E4E9EAE4AF
:1059D000E3E9F0F2F0EFF3F9FCFDFF040A0C0B0C25
:1059E000121A1E1F20232A2E30312F2F3132373B1F
:1059F000352D2A292726211D1A150C06020101FC26
:105A0000F4EFEBE7E7E6E5E5E0DCDCDBDADBDCDC6A
:105A1000DBD6D2D5DADBD9D5D5D9D9D6D8DFE3E2F2
:105A2000DEDDE5EEF1F0F1F6FCFEFF040C121311E1
:105A3000131C242827272C32343435383835323299
:105A4000393D3429252524211913120F05FCF7F8B7
:105A5000FAF5ECE6E4E4E4E2E0E1E1DEDBDADBE007
:105A6000E1E0DDDADADDDFDDDBDBDDDDD9D7DCE26D
:105A7000E2DEDBDDE6EBE8E8ECF3F7F7F7FF080C36
:105A80000C0B101A202224272C323435393C3B3899
:105A900035394242362D2B2C2B241A191A1407FBA8
:105AA000F9FEFFF4EBE7E7E7E3DEE0E3E1DCD8D77C
:105AB000DBDFDEDCDBD7D8DBDBDBDBDADCDAD6D83E
:105AC000DDE1E2DFDCE1E7E7E9ECF1F5F6F5FB0427
:105AD000080B0B0D151B1D1E242A2E2F2F333839B2
